{
  "_format": "hh-sol-artifact-1",
  "contractName": "RefundableWallet",
  "sourceName": "contracts/RefundableWallet.sol",
  "abi": [
    {
      "inputs": [
        {
          "internalType": "address",
          "name": "_token",
          "type": "address"
        },
        {
          "internalType": "uint256",
          "name": "_dispersalLength",
          "type": "uint256"
        }
      ],
      "stateMutability": "payable",
      "type": "constructor"
    },
    {
      "anonymous": false,
      "inputs": [
        {
          "indexed": true,
          "internalType": "address",
          "name": "previousOwner",
          "type": "address"
        },
        {
          "indexed": true,
          "internalType": "address",
          "name": "newOwner",
          "type": "address"
        }
      ],
      "name": "OwnershipTransferred",
      "type": "event"
    },
    {
      "stateMutability": "payable",
      "type": "fallback"
    },
    {
      "inputs": [],
      "name": "buy",
      "outputs": [],
      "stateMutability": "payable",
      "type": "function"
    },
    {
      "inputs": [
        {
          "internalType": "uint256",
          "name": "_amount",
          "type": "uint256"
        }
      ],
      "name": "calculateRefund",
      "outputs": [
        {
          "internalType": "uint256",
          "name": "",
          "type": "uint256"
        }
      ],
      "stateMutability": "view",
      "type": "function"
    },
    {
      "inputs": [],
      "name": "deposit",
      "outputs": [
        {
          "internalType": "uint256",
          "name": "",
          "type": "uint256"
        }
      ],
      "stateMutability": "view",
      "type": "function"
    },
    {
      "inputs": [],
      "name": "dispersal",
      "outputs": [
        {
          "internalType": "uint256",
          "name": "",
          "type": "uint256"
        }
      ],
      "stateMutability": "view",
      "type": "function"
    },
    {
      "inputs": [],
      "name": "dispersalLength",
      "outputs": [
        {
          "internalType": "uint256",
          "name": "",
          "type": "uint256"
        }
      ],
      "stateMutability": "view",
      "type": "function"
    },
    {
      "inputs": [],
      "name": "getBlockNumber",
      "outputs": [
        {
          "internalType": "uint256",
          "name": "",
          "type": "uint256"
        }
      ],
      "stateMutability": "view",
      "type": "function"
    },
    {
      "inputs": [],
      "name": "getDispersableEther",
      "outputs": [
        {
          "internalType": "uint256",
          "name": "",
          "type": "uint256"
        }
      ],
      "stateMutability": "view",
      "type": "function"
    },
    {
      "inputs": [],
      "name": "getRefundableBalance",
      "outputs": [
        {
          "internalType": "uint256",
          "name": "",
          "type": "uint256"
        }
      ],
      "stateMutability": "view",
      "type": "function"
    },
    {
      "inputs": [],
      "name": "initialTotalSupply",
      "outputs": [
        {
          "internalType": "uint256",
          "name": "",
          "type": "uint256"
        }
      ],
      "stateMutability": "view",
      "type": "function"
    },
    {
      "inputs": [],
      "name": "owner",
      "outputs": [
        {
          "internalType": "address",
          "name": "",
          "type": "address"
        }
      ],
      "stateMutability": "view",
      "type": "function"
    },
    {
      "inputs": [
        {
          "internalType": "uint256",
          "name": "_amount",
          "type": "uint256"
        }
      ],
      "name": "pullEther",
      "outputs": [],
      "stateMutability": "nonpayable",
      "type": "function"
    },
    {
      "inputs": [
        {
          "internalType": "uint256",
          "name": "_amount",
          "type": "uint256"
        }
      ],
      "name": "refund",
      "outputs": [],
      "stateMutability": "payable",
      "type": "function"
    },
    {
      "inputs": [],
      "name": "renounceOwnership",
      "outputs": [],
      "stateMutability": "nonpayable",
      "type": "function"
    },
    {
      "inputs": [],
      "name": "startingBlock",
      "outputs": [
        {
          "internalType": "uint256",
          "name": "",
          "type": "uint256"
        }
      ],
      "stateMutability": "view",
      "type": "function"
    },
    {
      "inputs": [],
      "name": "token",
      "outputs": [
        {
          "internalType": "contract ERC20",
          "name": "",
          "type": "address"
        }
      ],
      "stateMutability": "view",
      "type": "function"
    },
    {
      "inputs": [],
      "name": "tokenRate",
      "outputs": [
        {
          "internalType": "uint256",
          "name": "",
          "type": "uint256"
        }
      ],
      "stateMutability": "view",
      "type": "function"
    },
    {
      "inputs": [
        {
          "internalType": "address",
          "name": "newOwner",
          "type": "address"
        }
      ],
      "name": "transferOwnership",
      "outputs": [],
      "stateMutability": "nonpayable",
      "type": "function"
    },
    {
      "stateMutability": "payable",
      "type": "receive"
    }
  ],
  "bytecode": "0x608060405260405162000bba38038062000bba83398101604081905262000026916200018f565b6200003133620000df565b600180546001600160a01b0319166001600160a01b038416908117909155604080516318160ddd60e01b815290516318160ddd916004808201926020929091908290030181865afa1580156200008b573d6000803e3d6000fd5b505050506040513d601f19601f82011682018060405250810190620000b19190620001cb565b60035560058190554760065543600455600354600654620000d391906200012f565b600255506200024e9050565b600080546001600160a01b038381166001600160a01b0319831681178455604051919092169283917f8be0079c531659141344cd1fd0a4f28419497f9722a3daafe3b4186f6b6457e09190a35050565b6000816200015e62000143600283620001fb565b6200015786670de0b6b3a764000062000173565b9062000181565b6200016a9190620001fb565b90505b92915050565b60006200016a82846200021e565b60006200016a828462000238565b60008060408385031215620001a357600080fd5b82516001600160a01b0381168114620001bb57600080fd5b6020939093015192949293505050565b600060208284031215620001de57600080fd5b5051919050565b634e487b7160e01b600052601160045260246000fd5b6000826200021957634e487b7160e01b600052601260045260246000fd5b500490565b80820281158282048414176200016d576200016d620001e5565b808201808211156200016d576200016d620001e5565b61095c806200025e6000396000f3fe6080604052600436106100f65760003560e01c8063a8c6acda1161008f578063d91c98d311610061578063d91c98d314610234578063eeef479d1461024a578063f2fde38b14610260578063f74b468e14610280578063fc0c546a1461029557005b8063a8c6acda146101c8578063c783dc9e146101e8578063c9948c9614610208578063d0e30db01461021e57005b806342cbb15c116100c857806342cbb15c14610166578063715018a6146101795780638da5cb5b1461018e578063a6f2ae3a146101c057005b806316e92e2e146100ff578063278ecde114610127578063311028af1461013a578063317118841461015057005b366100fd57005b005b34801561010b57600080fd5b506101146102b5565b6040519081526020015b60405180910390f35b6100fd61013536600461082d565b6102da565b34801561014657600080fd5b5061011460035481565b34801561015c57600080fd5b5061011460025481565b34801561017257600080fd5b5043610114565b34801561018557600080fd5b506100fd61039c565b34801561019a57600080fd5b506000546001600160a01b03165b6040516001600160a01b03909116815260200161011e565b6100fd6103b0565b3480156101d457600080fd5b506101146101e336600461082d565b6104e2565b3480156101f457600080fd5b506100fd61020336600461082d565b6105f5565b34801561021457600080fd5b5061011460055481565b34801561022a57600080fd5b5061011460065481565b34801561024057600080fd5b5061011460045481565b34801561025657600080fd5b5061011460075481565b34801561026c57600080fd5b506100fd61027b366004610846565b610658565b34801561028c57600080fd5b506101146106d3565b3480156102a157600080fd5b506001546101a8906001600160a01b031681565b60006102d56102ce6007546102c86106d3565b906106f4565b47906106f4565b905090565b60006102e5826104e2565b6001546040516323b872dd60e01b8152336004820152306024820152604481018590529192506001600160a01b0316906323b872dd906064016020604051808303816000875af115801561033d573d6000803e3d6000fd5b505050506040513d601f19601f820116820180604052508101906103619190610876565b61036a57600080fd5b604051339082156108fc029083906000818181858888f19350505050158015610397573d6000803e3d6000fd5b505050565b6103a4610709565b6103ae6000610763565b565b600034116103bd57600080fd5b60006103e6670de0b6b3a76400006103e0600254346107b390919063ffffffff16565b906107bf565b6001546040516370a0823160e01b815230600482015291925082916001600160a01b03909116906370a0823190602401602060405180830381865afa158015610433573d6000803e3d6000fd5b505050506040513d601f19601f820116820180604052508101906104579190610898565b1161046157600080fd5b60015460405163a9059cbb60e01b8152336004820152602481018390526001600160a01b039091169063a9059cbb906044016020604051808303816000875af11580156104b2573d6000803e3d6000fd5b505050506040513d601f19601f820116820180604052508101906104d69190610876565b6104df57600080fd5b50565b6000806104f6836104f16102b5565b6107cb565b6001546040516370a0823160e01b81523060048201529192506000916105e1916001600160a01b0316906370a0823190602401602060405180830381865afa158015610546573d6000803e3d6000fd5b505050506040513d601f19601f8201168201806040525081019061056a9190610898565b600160009054906101000a90046001600160a01b03166001600160a01b03166318160ddd6040518163ffffffff1660e01b8152600401602060405180830381865afa1580156105bd573d6000803e3d6000fd5b505050506040513d601f19601f820116820180604052508101906102c89190610898565b90506105ed82826107fe565b949350505050565b6105fd610709565b8061060c6007546102c86106d3565b101561061757600080fd5b6007546106249082610821565b600755604051339082156108fc029083906000818181858888f19350505050158015610654573d6000803e3d6000fd5b5050565b610660610709565b6001600160a01b0381166106ca5760405162461bcd60e51b815260206004820152602660248201527f4f776e61626c653a206e6577206f776e657220697320746865207a65726f206160448201526564647265737360d01b60648201526084015b60405180910390fd5b6104df81610763565b60006102d56005546103e06106eb6004546102c84390565b600654906107b3565b600061070082846108c7565b90505b92915050565b6000546001600160a01b031633146103ae5760405162461bcd60e51b815260206004820181905260248201527f4f776e61626c653a2063616c6c6572206973206e6f7420746865206f776e657260448201526064016106c1565b600080546001600160a01b038381166001600160a01b0319831681178455604051919092169283917f8be0079c531659141344cd1fd0a4f28419497f9722a3daafe3b4186f6b6457e09190a35050565b600061070082846108da565b600061070082846108f1565b6000670de0b6b3a76400006107f46107e46002836108f1565b6107ee86866107b3565b90610821565b61070091906108f1565b6000816107f461080f6002836108f1565b6107ee86670de0b6b3a76400006107b3565b60006107008284610913565b60006020828403121561083f57600080fd5b5035919050565b60006020828403121561085857600080fd5b81356001600160a01b038116811461086f57600080fd5b9392505050565b60006020828403121561088857600080fd5b8151801515811461086f57600080fd5b6000602082840312156108aa57600080fd5b5051919050565b634e487b7160e01b600052601160045260246000fd5b81810381811115610703576107036108b1565b8082028115828204841417610703576107036108b1565b60008261090e57634e487b7160e01b600052601260045260246000fd5b500490565b80820180821115610703576107036108b156fea2646970667358221220abdbfb34d65c4e708de8037e78655647dfd7762c7982f65579ec234f034cc15264736f6c63430008140033",
  "linkReferences": {},
  "deployedLinkReferences": {}
}